:020000040800F2
:10000000FF7F0020954E0008E54E0008E54E0008F1
:10001000E54E0008E54E0008E54E0008000000002F
:10002000000000000000000000000000E54E000895
:10003000E54E000800000000E54E000885050008B8
:10004000E54E0008E54E0008E54E0008E54E0008C4
:10005000E54E0008E54E0008E54E0008E54E0008B4
:10006000E54E0008E54E0008E54E0008E54E0008A4
:10007000E54E0008E54E0008E54E0008E54E000894
:10008000E54E0008E54E0008E54E0008E54E000884
:10009000E50C0008E54E0008E54E0008E54E0008B6
:1000A000E54E0008E54E0008E54E0008E54E000864
:1000B000E54E0008E54E0008E54E0008E54E000854
:1000C000E54E0008E54E0008E54E0008E54E000844
:1000D000E54E0008E54E0008E54E0008E54E000834
:1000E000E54E0008E54E0008E54E0008E54E000824
:1000F000E54E0008E54E0008E54E0008E54E000814
:10010000000000000000000000000000E54E0008B4
:10011000E54E0008E54E0008E54E0008E54E0008F3
:10012000E54E0008E54E0008E54E0008E54E0008E3
:10013000E54E0008E54E0008000000000000000049
:10014000E54E0008E54E0008E54E000800000000FE
:10015000000000000000000000000000000000009F
:100160000000000000000000E54E0008E54E000819
:10017000E54E000800000000000000000000000044
:0801800000000000E54E00083C
:1001880008B540F64C20074BC2F200001B1A062B9C
:1001980000D808BD40F20003C0F20003002BF8D0DD
:1001A8009847F6E74F0A002008B540F64C2040F67D
:1001B8004C23C2F20003C2F200001B1A9B1003EB8F
:1001C800D373591000D108BD40F20002C0F20002FA
:1001D800002AF8D09047F6E710B540F64C24C2F252
:1001E8000004237873B9FFF7CBFF40F20003C0F295
:1001F80000032BB146F65840C0F60000AFF300806C
:100208000123237010BD00BF08B540F20003C0F2FF
:1002180000034BB146F6584040F65021C0F60000A6
:10022800C2F20001AFF3008040F64C20C2F2000099
:1002380003682BB140F20003C0F2000303B19847F2
:10024800BDE80840B0E700BF00B501B411490A682D
:1002580013884FF000004FF480734FF0000004F053
:100268005FFA30B14FEA4303B3F5084F01DC13805E
:10027800F3E708BC00BD00BF00B503B40649086831
:1002880000F10100086003BC00BD00BF00B500BD5F
:1002980000B500BD0400002000000020844641EAAB
:1002A800000313F003036DD1403A41D351F8043BE6
:1002B80040F8043B51F8043B40F8043B51F8043B38
:1002C80040F8043B51F8043B40F8043B51F8043B28
:1002D80040F8043B51F8043B40F8043B51F8043B18
:1002E80040F8043B51F8043B40F8043B51F8043B08
:1002F80040F8043B51F8043B40F8043B51F8043BF8
:1003080040F8043B51F8043B40F8043B51F8043BE7
:1003180040F8043B51F8043B40F8043B51F8043BD7
:1003280040F8043B51F8043B40F8043B403ABDD246
:10033800303211D351F8043B40F8043B51F8043BE8
:1003480040F8043B51F8043B40F8043B51F8043BA7
:1003580040F8043B103AEDD20C3205D351F8043B77
:1003680040F8043B043AF9D2043208D0D2071CBF43
:1003780011F8013B00F8013B01D30B88038060466C
:10038800704700BF082A13D38B078DD010F00303E2
:100398008AD0C3F10403D21ADB071CBF11F8013B52
:1003A80000F8013B80D331F8023B20F8023B7BE7A1
:1003B800043AD9D3013A11F8013B00F8013BF9D2CC
:1003C8000B7803704B7843708B7883706046704766
:1003D80007B5F8B9684600F00BFA08B10F4804E011
:1003E80001A800F005FA18B10D4804F053FE11E019
:1003F8000099CB1E072B03D90A4800F097FF09E0A4
:10040800094A01990093D05C11B104F033F901E075
:1004180004F03EF903B05DF804FB00BF706C0008FF
:10042800826C0008AB6C0008426E000807B558B92A
:10043800684604F0A5FA0648BDF90010BDF9022087
:10044800BDF9043000F072FF03B05DF804FB00BF93
:10045800D86C00081FB5F8B901A804F0BDFADFEDA3
:10046800107ADDED016A9DED027A9DED036A66EE74
:10047800A76A27EE277A66EE277AFDEEE66ABDEED2
:10048800C77AFDEEE77A074816EE901A17EE102A9B
:1004980017EE903A00F04AFF05B05DF804FB00BF84
:1004A800000080430B6D000808B558B904F038F90E
:1004B800054B0649002818BF19460548BDE80840FD
:1004C80000F034BF08BD00BF3A6D0008426D000857
:1004D8004B6D000808B5032004F0CCF8FEE70000D7
:1004E80010B590B0012306930793002308934FF4A7
:1004F800803302240E9306A84FF4E0130D940F9353
:1005080000F06EFF10BB0F23019303904FF480633C
:100518000590214601A80294049301F083FA044649
:10052800A0B901F063FC00F091FA114B185D013499
:1005380004F06CF8082CF8D10020014604F0B6F855
:1005480004F006FA20B10B4804F0A4FDFFF7C2FF3F
:1005580004F020FA08B10848F6E7FFF799FE00F022
:10056800B1F8FFF793FE4D20FFF76EFEF7E700BFE7
:10057800426E0008646D0008866D000808B501F039
:1005880047FCBDE80840FFF777BE07B540B96846A5
:1005980000F02EF901A800F02BF9009B019A1A60CF
:1005A80003B05DF804FB000007B538B901A800F0F6
:1005B8001FF9019903480A6800F0B8FE03B05DF816
:1005C80004FB00BF4A6E00082DE9F041154608B942
:1005D800314822E009B931481FE022B1304B0139D6
:1005E8001E68034609E02F4817E013F8012B5AB19B
:1005F800324401395278120706D54F1C18460C466A
:10060800F3D103781BB942E0002CFAD13FE0264928
:1006180004F084FE064610B92448254935E02549EA
:1006280004F0CAFD0446A0B91F4904F077FE064647
:1006380088B90C3555F80C1C59B355F8042C1AB167
:100648001D4800F073FEF4E755F8083C0120984770
:10065800EFE7002708E0022706E03046414604F0AD
:10066800ABFD044630B10C35D5F80080B8F1000F69
:10067800F3D108E01FB11148414600F057FE6B68FE
:100688003846984705E00E48314600F04FFE4FF0D7
:10069800FF342046BDE8F0819B6E0008BC6E000860
:1006A80008020020CC6E0008EF6E0008F66E000805
:1006B800956E0008266F00082B6F0008376F00083A
:1006C8003C6F000873B53F4D2B6823B13E4800F0DE
:1006D8002DFE00232B600DF1070000F027FA0028FB
:1006E8006ED19DF80730082B01D07F2B0DD1374CE8
:1006F800226852B1364800F019FE364B1A68013AA2
:100708001A602368013B23605AE0212B15D1324B34
:100718001B68002B54D0314C3149204604F070FD41
:100728002146304800F002FE204604F0C7FD274B62
:100738001860284B04441C6024E02B4A12681A44B1
:10074800527812F0970211D0204A11684F2901D926
:10075800072008E01F4C20680370451C01319DF8F4
:1007680007002560116004F059FC29E00D2B27D102
:10077800184B1B481B6819491A7004F041FD164BA9
:1007880001221A600A20134C04F048FC0F4A216821
:1007980016680B461046721A1A444F2A4FF0000288
:1007A80002D803F8012BF6E723600C4E0F4B0260CA
:1007B80050211A683046FFF707FF012326602B6097
:1007C80002B070BD18000020716F0008680A002090
:1007D800786F0008140000206C0A0020F80E002032
:1007E800A80E00207C6F00080802002010000020DE
:1007F80010B508490446002004F090FD30B10021EE
:100808000A4604F063FE2060002010BD4FF0FF3060
:1008180010BD00BFEF6E000810B506490446002061
:1008280004F07CFD10B12060002010BD4FF0FF30B7
:1008380010BD00BFEF6E00082DE9F04F834687B06A
:100848009246894600293BD001AC002527464D45F4
:1008580005EB0A0105F00F0621D01EB91A4800F071
:1008680065FD3C46194B1BF805101B6818480B44DE
:1008780004F101085B7813F0970F0ABF2E2321704B
:10088800237000F053FD0F2E444606D1002388F84C
:1008980000301048394600F049FD0135D7E70023FC
:1008A80023706EB11C46C6F110039C4204D20A485C
:1008B80000F03CFD0134F6E70648394600F036FD05
:1008C80007B0BDE8F08F00BF7F6F00080802002066
:1008D800856F00088B6F0008916F0008012838B5F4
:1008E8001DD002280E4C0F4D09D10F4804F0D2FB41
:1008F80021682A680D48BDE8384000F017BD204639
:10090800FFF776FF10B92846FFF772FF20682968BD
:100918000246FFF791FF23682A681344236038BD15
:10092800700A00201C000020956F00082D71000837
:1009380008B50A4B1A680AB9094A1A6018686B465A
:100948000144994206D904F0D1FA0C2303604FF010
:10095800FF3008BD014B196008BD00BF740A0020B4
:10096800941C00204FF0FF3070474FF40053536041
:100978000020704701207047002070471C4B70B55D
:100988001B68044698471B4B9C4206462ED11A4BBF
:10099800B3F80811B3F80C2192B212FA81F101F000
:1009A8007F01A3F80811B3F80A1189B28A1A92B222
:1009B800A3F80A210022A3F80C21B3F80811B3F810
:1009C8000A2192B289B21C4682B153187F2B88BF84
:1009D800C1F1800295B2214486312A46054803F0C8
:1009E80074FB044803F07FFBA4F80C51304670BD3B
:1009F8006C110020480F0020780A00202DE9FF41E3
:100A0800E0B972B60F480021D0F81051D0F814415F
:100A1800D0F81881D0F81C71D0F82061142200F5A4
:100A2800887004F0B1FA62B60748CDF800800197E3
:100A3800029600212A46234600F078FC04B0BDE85F
:100A4800F08100BF780A00207B71000810B5174CB0
:100A580023680021586802220B4604F023FB236810
:100A68000021986802220B4604F01CFB2368104CF6
:100A7800D86800210B46022204F014FB20460D49D9
:100A8800002202F03DFF0C490C4A4B6913600C4BE5
:100A980020464B6102F049FF20460A4903F00EFB4D
:100AA8002046BDE8104002F047BF00BF38060020CE
:100AB800480F002034010020680000206C1100203D
:100AC8008509000874010020F0B572B600230F4DA7
:100AD8004FF492764643AC198034A788BFB28FB1E1
:100AE80093420FD06788BFB23E440137AD5D07F02F
:100AF8007F07CD546780A588ADB2013DADB2A58012
:100B08000133E4E762B61846F0BD00BF780A00205A
:100B1800114600201A46FFF7D7BF08B50122FFF794
:100B2800D3FFD0F1010038BF002008BD014608B549
:100B38000020FFF7F2FF003018BF012008BD0000B9
:100B4800F8B5394B4FF492747F2A04FB003406D968
:100B5800D4F810310133C4F810310120F8BDB4F8CD
:100B68000A5112FA85F57F2D04D9D4F814510135AC
:100B7800C4F814514FF4927404FB003505F58475DC
:100B88006D8812FA85F57F2DF4D872B604FB00340F
:100B9800D4F818511544C4F818510A4491421DD08C
:100BA8004FF4927505FB003505F584746688B6B276
:100BB8007F2E13D8B5F8067111F801CBBFB205F531
:100BC80080763D44013707F07F0785F886C0F780B7
:100BD8006588ADB20135ADB26580DFE74FF492723A
:100BE80002FB0032B2F80811B2F80A2189B292B2B7
:100BF80054187F2C88BFC1F1800290B90B4C94F82F
:100C0800FC0103280DD1194495B2204686312A46A5
:100C180003F05BFA204603F066FA10B9024BA3F81A
:100C28000C5162B60020F8BD780A0020480F002059
:100C3800F8B51D461446D718BC4226460FD033785F
:100C48000A2B04F1010404D1002006490122FFF710
:100C580077FF314601220020FFF772FFECE72846B4
:100C6800F8BD00BFF46E0008F0B51B4C4FF492734A
:100C780003FB0043B3F8845012FA85F57F2D06D99B
:100C8800D3F81C210132C3F81C210120F0BDD3F890
:100C980020511544C3F820510A44914219D04FF409
:100CA80092774743E31911F801CBB3F88060B6B2E5
:100CB8003744013606F07F0604F807C0A3F88060C1
:100CC80003F18005B3F884309BB201339BB2AB804B
:100CD800E3E70020F0BD00BF780A0020014801F0DA
:100CE800D8BD00BF7011002010B50B460446B0B146
:100CF800B1B1888889796268102905D0202905D082
:100D0800082905D1805C10BD805A10BD805810BDDF
:100D18001A680448236800F009FB002010BD10BDC4
:100D2800084610BD2572000838B50B460446A8B120
:100D3800A1B18D8889794068102905D0202905D06E
:100D4800082906D12A5402E02A5200E02A5000203D
:100D580038BD1A680248236800F0E8FA012038BD57
:100D68002572000830B585B098B1437904790A4DE9
:100D780001229A40E140013A0A400168074800937D
:100D8800012B98BF2846019002940548134600F0AD
:100D9800CDFA05B030BD00BF5F7200085972000877
:100DA8006572000873B515461E460446D8B18379A6
:100DB800009383880D48194401912168134600F077
:100DC800B5FAA46844B176B1236833B12046294600
:100DD800FFF7C8FF0834F7E72EB10A2002B0BDE8D4
:100DE800704004F01BB902B070BD00BF8E720008DD
:100DF80070B50E460546A8B10B4895E8060000F008
:100E080095FAAC6804B970BD22685AB121462846E3
:100E1800FFF76AFF6968024633462046FFF7C2FFBC
:100E28000C34F1E770BD00BFC9720008F8B506467A
:100E3800092004F0F3F806F10C0508242F4655F8AC
:100E48000C1CA1B10A4800F071FAAB1B3B440444E6
:100E580053F80C3C4BB1074800F068FA0444462CA0
:100E680003D9054800F062FA08240C35E7E7F8BD15
:100E78007C6F000862720008F1720008F8B5064637
:100E8800092004F0CBF806F10C0508242F4655F884
:100E98000C1CB1B10B4800F049FAAB1B3B44204491
:100EA80053F80C3CC4B253B1074800F03FFA204451
:100EB800C4B2462C03D9054800F038FA08240C358A
:100EC800E5E7F8BD7C6F000862720008F17200085F
:100ED8002DE9F041022886B020D105A8FFF79CFC37
:100EE80010B9059E694C07E0694804F0D3F86948D1
:100EF800FFF79CFF684842E054F80C5CA4F10C072B
:100F080025B33046294604F057F90C340028F3D1AC
:100F18006248294600F00AFAB86825E002A8FFF7F7
:100F28007BFC10B9029E594C09E05D4804F0B2F808
:100F380021E0304604F040F90C34074610B354F869
:100F48000C1CA4F10C050029F3D110E031465548DA
:100F580000F0ECF94F48FFF769FF93E052482A6820
:100F6800314600F0E3F9A868FFF788FF06E04F482C
:100F7800314600F0DBF94748FFF758FF4C4804F0CA
:100F880089F87FE003A8FFF747FC10B128463946E7
:100F980010E0AC68039E2168304621B104F00CF9DA
:100FA80058B10C34F7E7434904F006F90028D5D1C5
:100FB80028460121FFF71CFF64E004A8FFF72CFC7A
:100FC80060B9A668DDF8108037689FB14046394699
:100FD80004F0F2F800282BD00836F5E72146284619
:100FE800FFF782FE69680590024601232046FFF755
:100FF800D9FE47E003F07AFF394607603A4604987D
:1010080004F064FA059003F071FF036823B12A48DD
:10101800049900F08BF935E02146059A2846FFF738
:1010280083FE29682268059B244800F07FF929E09F
:1010380005A8FFF7DDFB10B121482168E9E7214643
:101048002846FFF751FE7379012199403379013918
:1010580001FA03F220FA03F820EA0202059808EAE6
:101068000107014001FA03F31A4321462846FFF716
:101078005BFE059B00970193124829682268336834
:1010880000F054F906B0BDE8F08100BF5C16010815
:10109800F472000850160108E37400084F7600083F
:1010A800387500081476000867750008747600081B
:1010B800AE760008B0760008E675000804760008E9
:1010C800A4750008CF75000807B5CBB28DF80730B6
:1010D800014628B10268137003680133036004E015
:1010E8000DF107020123FFF7A3FD03B05DF804FB30
:1010F8002DE9F843141E8046894610DD002219F8B0
:10110800021009B10132FAE7A242B4BFC2EB0404EB
:101118000C4613F0020F14BF3027202700E02027C9
:10112800DB070CD42546002D05DD40463946FFF780
:10113800CBFF013DF7E724EAE476A41B00E0002694
:101148003546C6EB0903595D21B14046FFF7BCFFA0
:101158000135F6E72646002E05DD40463946FFF7FD
:10116800B3FF013EF7E7002CACBF2819281CBDE8E7
:10117800F8832DE9FF470C9EDDF8348081460C4644
:1011880051B930238DF804308DF80510324601A985
:101198004346FFF7ADFF36E033B10A2A04D10029F0
:1011A80002DA4C42012700E0002704AD002305F8CD
:1011B800013DAA4674B1B4FBF2F302FB1344092CB7
:1011C80003DD0E98A0F13A010C44303405F8014DC6
:1011D8001C46EEE787B14EB118F0020F06D048461C
:1011E8002D21FFF771FF013E012705E02D2305F1B1
:1011F800FF3A05F8013C0027484651463246434627
:10120800FFF776FF384404B0BDE8F087F0B589B041
:1012180006460D46059200242B7823B1252B79D15B
:101228006B786A1C2BB9002E7BD0336800221A70A9
:1012380077E0252B6DD02D2B06BFAA1C0123002398
:10124800174601323978302902D143F00203F7E713
:1012580000223978A1F130005FFA80FCBCF1090F57
:101268003D4607F1010703D80A2101FB0202F0E716
:10127800732909D105992C4F081D09680590002983
:1012880008BF3946304641E064290ED18DE80C008C
:10129800059961230293081D096805900A223046C2
:1012A8000123FFF766FF044439E0782906D1059940
:1012B800081D8DE80C000590612307E058290AD124
:1012C8000599081D8DE80C000590412302933046CE
:1012D800096810220BE075290BD18DE80C000599DF
:1012E80061230293081D096805900A2230460023ED
:1012F800D7E7632913D10599081D096805908DF86A
:101308001C1000218DF81D10304607A9FFF7F0FECC
:10131800C9E7154630462978FFF7D6FE013401356E
:101328007AE7204609B0F0BD307101080FB407B55F
:1013380004AA002052F8041B0192FFF767FF03B0CC
:101348005DF804EB04B07047012808B50FD00228F7
:1013580004D10748BDE8084003F09CBE4D20FEF7C5
:1013680073FFBDE8084001460248FFF7DFBF08BD2C
:101378003771010870710108154AD2F8883043F4B2
:101388007003C2F88830134B196841F001011960E5
:101398005868114901405960196821F0847121F495
:1013A80080311960196821F480211960596821F485
:1013B800FE015960D96A21F00F01D962186B0749FB
:1013C80001401963002199604FF0006393607047F2
:1013D80000ED00E0001002400CC07FF8CCFC00FFDC
:1013E80038B50368DA07044604D423689B0700F17C
:1013F800D5806EE1BB4B5A6802F00C02042A07D074
:101408005A6802F00C02082A2AD15B68DD0327D546
:101418004FF4003393FAA3F3B3FA83F343F02003B2
:10142800C3F34213012BAF4B01D11B6806E04FF405
:10143800003292FAA2F2B2FA82F25B6A4FF40032F8
:1014480092FAA2F2B2FA82F2012102F01F0201FA24
:1014580002F21A42C9D063688B42C6D0012038BD57
:10146800A14B00221A7000F0DBFC05464FF4003354
:1014780093FAA3F3B3FA83F343F02003C3F34213BD
:10148800012B984B01D11B6806E04FF4003292FA09
:10149800A2F2B2FA82F25B6A4FF4003292FAA2F236
:1014A800B2FA82F2012102F01F0201FA02F21A4294
:1014B80008D000F0B5FC41F28833401B9842D5D9DA
:1014C800032038BD884B22791A70D3F82A10A268F5
:1014D80021F00F010A43C3F82A206368012B2ED19B
:1014E80000F09EFC05464FF4003393FAA3F3B3FAD9
:1014F80083F343F02003C3F34213012B794B01D14B
:101508001B6806E04FF4003292FAA2F2B2FA82F2B5
:101518005B6A4FF4003292FAA2F2B2FA82F2012127
:1015280002F01F0201FA02F21A427FF45EAF00F0E5
:1015380077FC41F28833401B9842D4D9C0E700F0C9
:101548006FFC05464FF4003393FAA3F3B3FA83F321
:1015580043F02003C3F34213012B624B01D11B68F4
:1015680006E04FF4003292FAA2F2B2FA82F25B6A13
:101578004FF4003292FAA2F2B2FA82F2012102F09A
:101588001F0201FA02F21A423FF42FAF00F048FCA2
:1015980041F28833401B9842D4D991E7514B5A689D
:1015A80012F00C0F07D05A6802F00C02082A27D153
:1015B8005B68D80324D4022393FAA3F3B3FA83F322
:1015C80043F02003C3F34213012B464B01D11B68A0
:1015D80005E0022292FAA2F2B2FA82F25B6A0222D1
:1015E80092FAA2F2B2FA82F2012102F01F0201FA83
:1015F80002F21A4233D023698B427FF42FAF2EE0D8
:1016080022693A4B002A3AD001221A6000F008FCFD
:101618000546022393FAA3F3B3FA83F343F02003B6
:10162800C3F34213012B2F4B01D11B6805E00222A3
:1016380092FAA2F2B2FA82F25B6A022292FAA2F259
:10164800B2FA82F2012102F01F0201FA02F21A42F2
:1016580005D100F0E5FB401B6428DAD930E7214BBF
:10166800F8211A6891FAA1F1B1FA81F16369C9B256
:1016780022F0F8028B4013431A4A136029E01A60DB
:1016880000F0CEFB0546022393FAA3F3B3FA83F3E3
:1016980043F02003C3F34213012B124B01D11B6803
:1016A80005E0022292FAA2F2B2FA82F25B6A022200
:1016B80092FAA2F2B2FA82F2012102F01F0201FAB2
:1016C80002F21A4205D000F0ABFB401B6428DAD9BD
:1016D800F6E6236819070BD423685A0740F1B68049
:1016E8004EE000BF001002400210024000004242DB
:1016F800A269BB4B12B301221A6000F091FB0546A8
:10170800022393FAA3F3B3FA83F3022393FAA3F31E
:10171800B3FA83F3B34B02225B6A92FAA2F2B2FAEB
:1017280082F2012102F01F0201FA02F21A42D3D119
:1017380000F076FB401B6428E2D9C1E61A6000F08D
:101748006FFB0546022393FAA3F3B3FA83F302234C
:1017580093FAA3F3B3FA83F3A24B02225B6A92FAD9
:10176800A2F2B2FA82F2012102F01F0201FA02F299
:101778001A42B1D000F054FB401B6428E2D99FE61E
:10178800984BDA6942F08052DA61A3F5D0331A68CF
:1017980042F480721A6000F043FB0546924B1B68C6
:1017A800DB0557D58F4B1A6A22F005021A6200F042
:1017B80037FB0546022393FAA3F3B3FA83F3022314
:1017C80093FAA3F3B3FA83F343F04003C3F342134A
:1017D800022B844B4FF002020CBF1B6A5B6A92FA21
:1017E800A2F2B2FA82F2012102F01F0201FA02F219
:1017F8001A4235D17B4AE368116A21F00501194381
:10180800012B11623CD100F00BFB0546022393FA31
:10181800A3F3B3FA83F3022393FAA3F3B3FA83F39C
:1018280043F04003C3F34213022B6E4B4FF0020206
:101838000CBF1B6A5B6A92FAA2F2B2FA82F2012129
:1018480002F01F0201FA02F21A4211D0E369002BDA
:1018580041D194E000F0E4FA401B64289ED92FE6B9
:1018680000F0DEFA41F28833401B9842A2D927E6FD
:1018780000F0D6FA41F28833401B9842C6D91FE6D9
:1018880000F0CEFA0546022393FAA3F3B3FA83F3E2
:10189800022393FAA3F3B3FA83F343F04003C3F3A9
:1018A8004213022B4F4B4FF002020CBF1B6A5B6ABC
:1018B80092FAA2F2B2FA82F2012102F01F0201FAB0
:1018C80002F21A42C2D000F0ABFA41F28833401B50
:1018D8009842D8D9F4E5434A526802F00C02082A23
:1018E8003FF4BCAD022B414B4FF000021A6064D1AB
:1018F80000F096FA05464FF0007393FAA3F3B3FA93
:1019080083F343F02003C3F34213012B354B38D143
:101918001A684FF0007191FAA1F1B1FA81F101232F
:1019280001F01F0103FA01F1114232D12D4A256A53
:101938005068616A20F474102943014351602B4AAE
:10194800136000F06DFA04464FF0007393FAA3F3A6
:10195800B3FA83F343F02003C3F34213012B214B63
:101968001DD11B684FF0007292FAA2F2B2FA82F20D
:10197800012102F01F0201FA02F21A4217D00020D8
:1019880038BD4FF0007292FAA2F2B2FA82F25A6AA5
:10199800BFE700F045FA401B6428ACD990E54FF04A
:1019A800007292FAA2F2B2FA82F25B6ADAE700F007
:1019B80037FA001B6428C7D982E500F031FA0446DB
:1019C8004FF0007393FAA3F3B3FA83F343F02003C1
:1019D800C3F34213012B034B0AD11B680FE000BF6E
:1019E8008004424200100240007000406000424201
:1019F8004FF0007292FAA2F2B2FA82F25B6A4FF0EA
:101A0800007292FAA2F2B2FA82F2012102F01F02E7
:101A180001FA02F21A42B2D000F002FA001B64285E
:101A2800CED94DE5B34B1A6802F00702914270B562
:101A380004460D4640F2B4801A6822F007020A43B1
:101A48001A601B6803F007038B4201D0012070BDA8
:101A58000368980706D5A84AA168506820F0F000E6
:101A680001435160D9070BD423685A0740F14681D6
:101A7800A14AE168506820F4E060014351603DE10B
:101A88006368012B18D14FF4003292FAA2F2B2FA2D
:101A980082F242F02002C2F34212012A964A01D190
:101AA800126806E04FF4003191FAA1F1B1FA81F120
:101AB800526A4FF400312FE0022B18D14FF0007218
:101AC80092FAA2F2B2FA82F242F02002C2F3421271
:101AD800012A894A01D1126806E04FF0007191FA93
:101AE800A1F1B1FA81F1526A4FF0007114E00222BB
:101AF80092FAA2F2B2FA82F242F02002C2F3421241
:101B0800012A7D4A01D1126805E0022191FAA1F16A
:101B1800B1FA81F1526A022191FAA1F1B1FA81F187
:101B2800012001F01F0100FA01F111428ED0724A22
:101B3800516821F003010B43536000F071F96368A9
:101B4800012B05460ED16C4B5B6803F00C03042B8C
:101B58008AD000F065F941F28833401B9842F2D9E7
:101B6800032070BD022B0CD0634B5B6813F00C0F85
:101B78000ED179E700F054F941F28833401B9842BE
:101B8800EED85D4B5B6803F00C03082BF2D16BE7D2
:101B980000F046F941F28833401B9842E4D9DFE768
:101BA80003689E0706D5544AA168506820F0F000E3
:101BB80001435160D8070CD44E4B1A6822F0070233
:101BC8002A431A601B6803F00703AB427FF43EAF59
:101BD8004AE76368012B18D14FF4003292FAA2F257
:101BE800B2FA82F242F02002C2F34212012A424AB9
:101BF80001D1126806E04FF4003191FAA1F1B1FA6F
:101C080081F1526A4FF400312FE0022B18D14FF0C6
:101C1800007292FAA2F2B2FA82F242F02002C2F301
:101C28004212012A344A01D1126806E04FF00071CD
:101C380091FAA1F1B1FA81F1526A4FF0007114E002
:101C4800022292FAA2F2B2FA82F242F02002C2F31F
:101C58004212012A284A01D1126805E0022191FAAC
:101C6800A1F1B1FA81F1526A022191FAA1F1B1FA16
:101C780081F1012001F01F0100FA01F111423FF446
:101C8800E5AE1D4A516821F003010B43536000F093
:101C9800C7F86368012B06460DD1174B5B6803F044
:101CA8000C03042B88D000F0BBF841F28833801B6A
:101CB8009842F2D954E7022B0DD00F4B5B6813F012
:101CC8000C0F0FD178E700F0ABF841F28833801B96
:101CD80098423FF645AF084B5B6803F00C03082BAE
:101CE800F1D169E700F09CF841F28833801B9842F3
:101CF800E3D935E70020024000100240190707D554
:101D0800064B21695A6822F4605242EAC1025A60BD
:101D18000F2000F058F8002070BD00BF00100240EE
:101D2800154B5B6803F00C02082A22D14FF470129D
:101D380092FAA2F2B2FA82F203F47011D2B221FA44
:101D480002F20E498A5C0C49C86A0F2191FAA1F186
:101D5800B1FA81F100F00F00C9B220FA01F1084888
:101D6800DB03415C4ABF07480748B0FBF1F050432A
:101D780070470448704700BF00100240B471010862
:101D8800A471010800127A0000093D0008B5FFF7A8
:101D9800C7FF094B5A68F02393FAA3F3B3FA83F306
:101DA80002F0F002DBB222FA03F3044AD35CD84013
:101DB800034B186008BD00BF001002409471010871
:101DC80020000020704710B50446FFF7DFFF4FF4EE
:101DD8007A73B0FBF3F000F087F84FF0FF3021463C
:101DE800002200F043F8002010BD000008B5074BA2
:101DF8001A6842F010021A60032000F025F80F203C
:101E0800FFF7E1FFFFF7DEFF002008BD00200240DA
:101E1800024B1A6801321A60704700BF9C0B002001
:101E2800014B1868704700BF9C0B002013B5019048
:101E3800FFF7F6FF0446FFF7F3FF019B001B9842EC
:101E4800F9D302B010BD0000074AD1684FF6FF036E
:101E58000B4043F0BF6343F4003300F0070043EA4C
:101E68000023D360704700BF00ED00E0164BDB682D
:101E7800C3F3022370B51D1DC3F10704042C28BF4A
:101E88000424062D4FF001058CBF033B002305FAFF
:101E980004F405FA03F6013C013E2140324001FA00
:101EA80003F3134300284FEA031305DADAB200F00C
:101EB8000F00064B1A5470BD00F1604000F56140F8
:101EC800DBB280F8003370BD00ED00E014ED00E0F7
:101ED8004209012300F01F0003FA00F0014B43F808
:101EE8002200704700E100E00138B0F1807F0AD29B
:101EF800064B074A5860F02182F823100020072279
:101F080098601A6070470120704700BF10E000E039
:101F180000ED00E02DE9F043D1F800C000230122D4
:101F28009A4002EA0C04944240F0A0804A6822F0E9
:101F38001007022F13D1DE0800EB860603F007080E
:101F4800356A4FEA88084FF00F0909FA08F925EAB7
:101F580009090D6905FA08F849EA080535625D00BE
:101F68000326D0F80090AE40F64302F0030806EAD4
:101F7800090908FA05F8013F49EA0808012FC0F8DD
:101F8800008010D8876806EA0708CF68AF4048EA9B
:101F980007078760476827EA0408C2F300179F40CD
:101FA80048EA07074760C7683E408F68AF4046EA7F
:101FB8000705C560D50059D52F4DAE6946F0010615
:101FC800AE6123F0030606F1804606F5803603F07D
:101FD8000307B568BF004FF00F0808FA07F8B0F11B
:101FE800904F25EA080815D0244DA84214D005F5CD
:101FF8008065A84212D005F58065A84210D005F585
:102008008065A8420ED005F58065A84214BF062554
:10201800052508E0002506E0012504E0022502E088
:10202800032500E00425BD4045EA0805B560144EC7
:102038003768E54312F4803F14BF27432F403760C9
:10204800776896030E4E4CBF27432F407760B768DA
:1020580012F4801F14BF27432F40B760F66892021E
:10206800074A54BF05EA06043443D4600133102BF1
:102078007FF455AFBDE8F08300100240000400482B
:1020880000040140036919420CBF00200120704779
:102098000AB1018370474183704738B50446002868
:1020A8003FD0022380F8413102F048F860682346A7
:1020B8000022824203F11C034FF0000108D00125E1
:1020C8001A735D73D9739961D96119622A44F0E76B
:1020D8002246814202F11C024FF000030DD082F823
:1020E800981082F8993082F89B30C2F8A430C2F870
:1020F800A830C2F8AC300131EBE722680121A2F820
:1021080040104FF43D41A2F84030A2F84430A2F804
:102118005030A2F8401084F82430184684F8413131
:1021280038BD012038BD08B5012100F0DAFE0020D5
:1021380008BD90F84031012B0FD0012380F84031C1
:1021480021B903688022A3F84C2001E080F824100C
:10215800002380F840311846704702207047F0B5D8
:10216800CCB214F0800F01F07F054FF01C0615BFAC
:1021780006FB050106FB01012831B431E4090D70A5
:102188004C70CB7090F84031CA60012B00F0888108
:10219800012380F84031CC780A780368032C32D8C0
:1021A800DFE804F002240E1814B233F8242022F4D5
:1021B800EC4222F070021204120C42F4007220E089
:1021C80014B233F8242022F4EC4222F070021204F4
:1021D800120C16E014B233F8242022F4EC4222F058
:1021E80070021204120C42F4C0620AE014B233F80E
:1021F800242022F4EC4222F070021204120C42F461
:10220800806223F824200D782CB233F8242022F0A1
:10221800F0021205120D2A4342F4004242F08002F5
:1022280023F824208C7A0A78002C75D14C788E8873
:1022380008253CB3B3F85040A4B215FB024203EBA7
:10224800420276087600C2F800640C7833F824203D
:1022580055060BD533F8242022F0F0021205120D92
:1022680042F4004242F0C00223F82420097833F8EF
:10227800212022F4E04222F040021204120C82F0E3
:10228800200202E1B3F85070BFB215FB02720432AB
:1022980003F580647608760044F81260B3F850605D
:1022A8000A78B6B215FB0265CA683E2A05F1060629
:1022B8000BD9C2F34F15D20604BF05F1FF35ADB2F5
:1022C8006FEAC5656FEA554506E0C2F34F05D707C3
:1022D80044BF0135ADB2AD02ADB244F816500C782A
:1022E80033F8242052040BD533F8242022F0F002CE
:1022F8001205120D42F4404242F0800223F82420D5
:10230800097833F8212022F4804222F07002120466
:10231800120C82F44052B8E014B233F8242022F4AC
:10232800F8721205120D42F4014242F0800223F8BD
:102338002420B3F850500E780824ADB214FB06558B
:10234800CE8803F580627608760042F81560B3F807
:1023580050500E78ADB214FB06540D8904346D0844
:102368006D0042F814500C784A7824B2002A46D1FD
:1023780033F8242057040BD533F8242022F0F00238
:102388001205120D42F4404242F0800223F8242044
:102398000C7833F8242056060BD533F8242022F085
:1023A800F0021205120D42F4004242F0C00223F876
:1023B80024200C7833F8242022F0F0021205120DA4
:1023C80042F4004242F0C00223F824200C7833F88B
:1023D800242022F4804222F070021204120C82F4AB
:1023E800405242F4004242F0800223F82420097847
:1023F80033F8212022F4E04222F0400243E033F88F
:10240800242055040BD533F8242022F0F0021205BD
:10241800120D42F4404242F0800223F824200C7846
:1024280033F8242052060BD533F8242022F0F0028A
:102438001205120D42F4004242F0C00223F8242093
:102448000C7833F8242022F0F0021205120D42F421
:10245800404242F0800223F824200C7833F82420EC
:1024680022F4E04222F040021204120C42F400422C
:1024780042F0800223F82420097833F8212022F43E
:10248800804222F070021204120C42F4004242F020
:10249800800223F82120002380F840311846F0BD3F
:1024A8000220F0BDCBB213F0800F01F07F0230B5EF
:1024B8004FF01C0415BF04FB020104FB0101283185
:1024C800B431DB090A704B7090F84031012B00F0F1
:1024D800C280012380F840318D7A4C7803680A78ED
:1024E80045BBC4B114B233F8242055060BD533F8D4
:1024F800242022F0F0021205120D42F4004242F0AC
:10250800C00223F82420097833F8212022F4E0427D
:1025180022F0400292E014B233F82420520440F131
:10252800868033F8242022F0F0021205120D42F4BE
:10253800404278E0002C3CD114B233F824205504F2
:102548000BD533F8242022F0F0021205120D42F4C4
:10255800404242F0800223F824200C7833F82420EB
:1025680052060BD533F8242022F0F0021205120D82
:1025780042F4004242F0C00223F824200C7833F8D9
:10258800242022F0F0021205120D42F4004242F01B
:10259800C00223F824200C7833F8242022F4804247
:1025A80022F070021204120C42F4004242F080023F
:1025B800A7E714B233F8242055040BD533F82420A8
:1025C80022F0F0021205120D42F4404242F080025D
:1025D80023F824200C7833F8242052060BD533F83E
:1025E800242022F0F0021205120D42F4004242F0BB
:1025F800C00223F824200C7833F8242022F0F002BB
:102608001205120D42F4404242F0800223F82420C1
:102618000C7833F8242022F4E04222F0400212041D
:10262800120C42F4004242F0800223F82420097878
:1026380033F8212022F4804222F070021204120C96
:1026480042F4004242F0800223F82120002380F85F
:102658004031184630BD022030BD70B501F07F0111
:102668001C2505FB0105B0352C1D22610022627076
:102678006361A261297190F84011012953D00121A9
:1026880080F84011E168A67A8B4285BFC1EB03034D
:10269800636162610B46026829790EB164780CBBEC
:1026A800B2F85040A4B204EBC1013E2B02F580669B
:1026B80001F106010BD9C3F34F14DB0604BF04F183
:1026C800FF34A4B26FEAC4646FEA544406E0C3F36B
:1026D8004F04DB0744BF0134A4B2A402A4B246F8F5
:1026E80011400AE0012C08D1B2F85040A4B204EB22
:1026F800C10102EB4101C1F80C34297932F82130CB
:1027080023F4804323F070031B041B0C83F4405311
:1027180043F4004343F0800322F82130002380F87B
:102728004031184670BD022070BD01F07F011C23A6
:1027380003FB0100B0F8CC007047F8B501F07F0149
:102748001C274F432837C51904466B611E460020D5
:1027580001236B702A61A861E15594F840119942F0
:1027680000F0958084F84031EB68A97A9E4283BFD7
:10277800C3EB06066E611E466861B3B281B91146A5
:102788002068AA8800F085FB2368E15DB3F8502033
:1027980092B202EBC10203EB4203C3F8046460E0A7
:1027A80095F801E02068E15DBEF1000F22D1B0F894
:1027B80050C01FFA8CFC0CEBC1013E2E00F5806E58
:1027C80001F1060C0BD9C6F34F11F60604BF01F14F
:1027D800FF3189B26FEAC1616FEA514106E0C6F381
:1027E8004F01F60744BF013189B2890289B24EF818
:1027F8001C100CE0BEF1010F09D1B0F850E01FFA2F
:102808008EFE0EEBC10100EB4101C1F80C64E15DE5
:1028180030F8211049064CBF2E89EE881146324601
:1028280000F037FB6B782268E15D5BB909B232F8DA
:10283800213023F0F0031B051B0D43F4004343F044
:10284800C0030CE0012B0CD109B232F8213023F07F
:10285800F0031B051B0D43F4404343F0800322F8AB
:102868002130E15D226832F8213023F4E04323F07F
:1028780040031B041B0C83F0300343F4004343F074
:102888008003002022F8213084F84001F8BD02209E
:10289800F8BD0368B3F844301BB2002B2DE9F743A9
:1028A800044611DB2368B3F84420520540F1C38184
:1028B8004FF6FF322046A3F8442001F0A9FC204639
:1028C8000021FFF736FCB6E10023ADF8063020689A
:1028D800B0F844309BB2ADF804301B04E2D5BDF823
:1028E800048018F00F0840F0B780BDF80410038882
:1028F80001F0100189B259BB23F4E14323F07003BE
:102908001B041B0C0380B0F8503094F828209BB2AD
:1029180003EBC20300EB4300A26BD0F80434C3F30B
:10292800090323641344A363204601F065FC94F86B
:102938002430002BCBD0E36B002BC8D194F82410A3
:10294800226841F08001A2F84C1084F82430BEE7D8
:102958009BB2ADF80630BDF806301B051FD5B0F8A0
:10296800503094F8B4209BB203EBC20300EB43034E
:10297800B4F8B820D3F80C34C3F30903C4F8CC3046
:1029880004F5A27100F09CFA2268138823F0700302
:102998001B051B0D1380204601F01EFC97E7BDF8B0
:1029A80006301BB2002B92DA038823F070031B0554
:1029B8001B0D0380B0F8503094F8B4209BB203EBA1
:1029C800C20300EB4303D3F80C34C3F30903C4F880
:1029D800CC3063B1B4F8B820D4F8C41000F070FA61
:1029E800D4F8C420D4F8CC301344C4F8C4302046FA
:1029F800002101F0F8FB2268D4F8C030B2F850503A
:102A08003E2BADB202F5806005F106050BD9C3F384
:102A18004F11DF0604BF01F1FF3189B26FEAC161CE
:102A28006FEA514106E0C3F34F01DE0744BF0131AD
:102A380089B28902138823F4804323F070031B04AE
:102A48001B0C83F4405343F4004389B243F08003E2
:102A580040F8151013803AE70FFA88F730F8273056
:102A68009BB2ADF80630BDF806301BB2002B6DDA0C
:102A780030F827304FF01C0923F0700309FB084990
:102A88001B0509F1B0091B0D20F8273009F10405D1
:102A9800AA7A99F804309AB9B0F8502092B202EBA9
:102AA800C30300EB4303D3F80C64C6F30906B6B2BC
:102AB800002E37D02969AA88334600F001FA31E0A0
:102AC8001AB230F82220B0F8501012F4804F89B2B0
:102AD8004FF0080212FB031300EB430308D0D3F8AE
:102AE8000464C6F30906B6B26EB12969EA8807E03C
:102AF800D3F80C64C6F30906B6B226B129692A8947
:102B0800334600F0DDF999F80410226832F82130D4
:102B180023F0F0031B051B0D43F4004343F0C003EF
:102B280022F82130AB692A6999F804103344AB6163
:102B38006B6932442A6113B1E868864203D22046A1
:102B480001F051FB02E02046FFF787FDBDF8063093
:102B58001A067FF5BCAE206830F8273023F4E1432D
:102B68001C2623F0700306FB08F61B0428361B0CF2
:102B780020F82730A519A35DAA7A92B9B0F8502099
:102B880092B202EBC30300EB4303D3F80434C3F35C
:102B98000903AB61002B34D02969AA8800F079F9C0
:102BA8002FE01AB230F82220B0F8501012F0400F7F
:102BB80089B24FF0080212FB031300EB430308D05D
:102BC800D3F80434C3F30903AB6163B12969EA8814
:102BD80007E0D3F80C34C3F30903AB611BB12969CF
:102BE8002A8900F056F9A15D226832F8213023F0D5
:102BF800F0031B051B0D43F4404343F0800322F808
:102C080021302368A15DB3F8502092B202EBC102D3
:102C180003EB42032046D3F804242B69C2F30902CC
:102C2800AA611A446B692A6113B901F0E5FA4EE604
:102C3800FFF783FD4BE62368B3F84420570444BFED
:102C48004BF6FF72A3F84420B3F84420960444BF1F
:102C58004DF6FF72A3F84420B3F84420D50413D5E9
:102C6800B3F8402022F004021204120CA3F840200A
:102C78004FF43D42A3F84020204601F0D7FA2368DC
:102C88004EF6FF72A3F844202368B3F844201005D9
:102C980018D54FF2FF72A3F84420B3F8402092B23F
:102CA80042F00802A3F84020B3F8402092B242F064
:102CB8000402A3F84020B3F84430D90402D42046D3
:102CC80001F0B3FA2368B3F84420920506D54FF60D
:102CD800FF52A3F84420204601F096FA2368B3F87F
:102CE8004420D70544BF4FF6FF62A3F8442003B041
:102CF800BDE8F08390F84031012B10B549D0CCB233
:102D0800012314F0800F80F8403101F07F024FF06A
:102D18001C0315BF03FB020303FB01032833B43371
:102D280001219970E409D1B219705C70026881B907
:102D3800138823F4804323F040031B041B0C83F403
:102D4800805383F0100343F4004343F0800313805F
:102D58001AE009B232F8213044B123F4E04323F0F9
:102D680040031B041B0C83F0100307E023F480438B
:102D780023F070031B041B0C83F4805343F40043BB
:102D880043F0800322F82130002380F840311846B0
:102D980010BD022010BDCBB213F0800F01F07F02EE
:102DA80010B54FF01C0415BF04FB020104FB010120
:102DB8002831B431DB0900248C700A704B7090F80C
:102DC8004031012B49D0012380F840310C784A78F2
:102DD800036824B2DAB133F8242052060BD533F84D
:102DE800242022F0F0021205120D42F4004242F0B3
:102DF800C00223F82420097833F8212022F4E04285
:102E080022F040021204120C82F030021AE033F869
:102E1800242052040BD533F8242022F0F0021205A6
:102E2800120D42F4404242F0800223F8242009782F
:102E380033F8212022F4804222F070021204120C8E
:102E480082F4405242F4004242F0800223F82120EA
:102E5800002380F84031184610BD022010BD11F043
:102E6800800F10B54FF01C0405D001F07F0104FB62
:102E78000100283002E004FB0100B43012B982726C
:102E8800838004E00122C3801B0C8272038100202E
:102E980010BD013300F5806030B55B1000EB4202D5
:102EA80000249C4201F1020109D011F8015C11F8DB
:102EB800020C40EA052022F824000134F1E730BD75
:102EC800013300F5806030B55B1000EB420200244E
:102ED8009C4205D052F8245021F814500134F7E7E9
:102EE80030BD704730B50468064865682840039DC2
:102EF80028430343C1F3090143EA010040EA0242BF
:102F0800626030BD009800FC70B504460D46FEF7BF
:102F180087FF23689A69064612F0100039D094F8A2
:102F28003520122A07D094F83520522A03D094F875
:102F38003520622A12D15A6890010FD45A6842F497
:102F480080425A600AE09A69920611D4691CFAD044
:102F580035B1FEF765FF801BA84201D82368F2E768
:102F6800012384F83530002384F83430032070BD01
:102F78001022DA612022DA615968064A0A405A604A
:102F8800042384F836300120002384F8350084F8BF
:102F9800343070BD00E800FE2DE9F04104460E46CD
:102FA80090461D46FEF73CFF0746B8F1000F25D1B5
:102FB800226893693340B3420ED0691CF9D07DB1C1
:102FC800FEF72EFFC01BA842F2D909E06B1C06D100
:102FD80093693340B342F9D00020BDE8F08145B988
:102FE800012384F83530002384F834300320BDE809
:102FF800F081FEF715FFC01BA842F1D82268E7E769
:1030080070B504460D46FEF70BFF064623689B691C
:1030180098071BD420462946FFF776FFC0B96B1CDA
:10302800F4D06DB994F8363043F0200384F8363084
:10303800012384F83530002384F83430032070BD30
:10304800FEF7EEFE801BA842E0D9EBE7002070BD3A
:10305800012070BDF7B5089D1F464FF40053044684
:10306800009316464FF08073FAB2FFF73BFF2046F5
:103078002946FFF7C5FF30B194F83630042B0CBF52
:103088000120032017E0012F236808D0320A9A6232
:1030980020462946FFF7B4FF0028EDD12368F6B291
:1030A8009E622046802100222B46FFF775FF0028EC
:1030B80014BF0320002003B0F0BDF7B5089D1F46DC
:1030C8004FF400530446009316460023FAB2FFF764
:1030D80009FF20462946FFF793FF30B194F83630B0
:1030E800042B0CBF0120032017E0012F236808D010
:1030F800320A9A6220462946FFF782FF0028EDD15E
:103108002368F6B29E622046402100222B46FFF734
:1031180043FF002814BF0320002003B0F0BD70B5A2
:1031280004460D46FEF77CFE064623689B699A0610
:1031380019D420462946FFF7E7FEB0B96DB994F8CF
:10314800363043F0200384F83630012384F83530D4
:10315800002384F83430032070BDFEF761FE801B25
:10316800A842E2D9EBE7002070BD012070BD70478E
:1031780010B50446002841D090F835300BB9FFF758
:10318800F6FF022384F835302368E1681A6822F0D4
:1031980001021A60626822F070621A619A6822F469
:1031A80000429A60A26842B1012903D142F4004268
:1031B8009A6007E042F404429A60022904BF4FF47F
:1031C80000625A605A68616942F0007242F4004233
:1031D8005A6022691143A26941EA0222DA60216A2F
:1031E800E2690A431A601A6842F001021A60002074
:1031F800012384F8360084F8353010BD012010BD55
:10320800704710B5044688B1022380F8353003684A
:103218001A6822F001021A60FFF7F2FF002084F812
:10322800360084F8340084F8350010BD012010BD44
:103238002DE9F34790F835A0DDF82880BDF82C502B
:10324800DDF830905FFA8AFABAF1010F04460F46AA
:1032580064D1B8F1000F01D1012062E0002DFBD04C
:103268000668B66916F4004658D190F834C0BCF127
:10327800010F53D04FF0520E80F835E080F834A09B
:1032880080F83660CDF80090FFF7E4FE20B194F89E
:10329800363084F8346031E00090FF2D20463946FE
:1032A8001CD8EAB24FF00073FFF71CFE2E462046EA
:1032B8004946FFF7A5FEF8B9236818F8012B013D28
:1032C800013E9A62ADB210D18DB1204680213246BE
:1032D8004B46FFF761FE18BB0096DEE7FF224FF072
:1032E8008073FFF7FFFDFF26E1E7002DDFD12046C1
:1032F8001921FFF714FF20B194F83630042B0FD1B1
:10330800AAE723682022DA615968074A0A405A6006
:10331800012384F8353084F8340002E0022000E00C
:10332800032002B0BDE8F08700E800FE2DE9F3476E
:1033380090F835A0DDF82880BDF82C50DDF83090E5
:103348005FFA8AFABAF1010F04460F466CD1B8F158
:10335800000F01D1012068E0002DFBD00668B66996
:1033680016F4004660D190F834C0BCF1010F5BD070
:103378004FF0620E80F835E080F834A080F83660AF
:10338800CDF80090FFF799FE20B194F8363084F814
:10339800346038E04FF41053FF2D0093204639462F
:1033A80021D8EAB24FF00073FFF79CFD2E46204665
:1033B800042100224B46FFF7EFFD30BB23685B6A10
:1033C800013D013E08F8013BADB213D1A5B120463D
:1033D800802132464B46FFF7DFFDB0B90096204604
:1033E8003946FF2DDCE7FF224FF08073FFF77AFDA7
:1033F800FF26DCE7002DDAD120461921FFF78FFEE2
:1034080028B194F83630042BA4D003200DE02368AB
:103418002022DA615968064A0A405A60012384F872
:10342800353084F8340000E0022002B0BDE8F087AF
:1034380000E800FE90F8350070472DE9F041044699
:103448000F4616461D46FEF7EBFC80462268936839
:103458003B40B34233D06B1CF9D04DB923685A684E
:1034680022F0E0025A606268B2F5827F12D106E06B
:10347800FEF7D6FCC8EB0000A842E7D9EEE7A26841
:10348800B2F5004F02D0B2F5806F03D11A6822F06E
:1034980040021A60A26AB2F5005F07D11A6822F4E6
:1034A80000521A601A6842F400521A60012384F824
:1034B8005D30002384F85C300320BDE8F0810020F3
:1034C800BDE8F0812DE9F34104460F4616461D4636
:1034D800FEF7A6FC804623689A683A40B2423AD082
:1034E800B7F5C06F04D11EB91A7BD2B28DF8072088
:1034F8006A1CF1D04DB923685A6822F0E0025A607C
:103508006268B2F5827F12D106E0FEF789FCC8EB4B
:103518000000A842DFD9EEE7A268B2F5004F02D05A
:10352800B2F5806F03D11A6822F040021A60A26ACD
:10353800B2F5005F07D11A6822F400521A601A68BF
:1035480042F400521A60012384F85D30002384F8A5
:103558005C30032000E0002002B0BDE8F08138B5FF
:103568000D4600224FF4C0512B460446FFF7AAFF30
:10357800024668B9204680212B46FFF75EFF0246C7
:1035880030B920464FF4C0612B46FFF79BFF30B19E
:1035980094F85E3043F0200384F85E30032038BD91
:1035A800704770B5044600284BD0022380F85D3080
:1035B800FFF7F6FF2368E1681A68B1F5E06F22F0BB
:1035C80040021A604FF0000003D90246B1F5706F4F
:1035D80001E04FF4805218BFA062206B28B9B1F502
:1035E800E06F8CBF0220012020636568A668A0698F
:1035F8002E4325692E4365692E43E5692E43256AC6
:103608002E43A56A354300F4007635431D60256BCB
:10361800022D03D11D6845F400651D60656A2943C4
:10362800656B000C0D4300F0040005432A435A6003
:10363800E26A00201A61012384F85E0084F85D3094
:1036480070BD012070BD704710B5044688B10223D3
:1036580080F85D3003681A6822F040021A60FFF7AC
:10366800F2FF002084F85E0084F85D0084F85C00B6
:1036780010BD012010BD2DE9F74F90F85D700C9D2D
:103688004FF0000B012F0446894692461E46ADF8BE
:1036980006B001D002202DE1002900F02881002A7F
:1036A80000F02581002B00F02281FEF7B9FB94F889
:1036B8005C30012B8046EDD0052384F85D30A36A89
:1036C80084F85C70B3F5005F84F85EB0C4F840A07D
:1036D800A4F84660A4F84460C4F83890E687A68742
:1036E800226807D1136823F400531360136843F466
:1036F80000531360E3685168B3F5E06F01D8012EF9
:1037080002D921F4805101E041F4805151601168DF
:103718004F0603D4116841F040011160B3F5E06F22
:103728003FD9E08FB4F8461068B323689A689607C3
:1037380010D5A26B013832F8026B80B2DE60A2634A
:10374800E08738B9A26AB2F5005F03D11A6842F47B
:1037580080521A6069B123689A68D20709D5DA6875
:10376800236C23F8022B2364B4F84630013BA4F8F9
:1037780046306B1CD5D015B3FEF752FBC8EB0000E2
:10378800A842CED91BE00029E4D1A36AB3F5005FB3
:1037980040F08D805EE0FEF743FBC8EB0000A842D6
:1037A8000DD8E38F002B50D0226891688F070DD475
:1037B800B4F846203ABB681CF3D0002DEBD10123A6
:1037C80084F85D30002384F85C3092E0022BA16B12
:1037D80005D931F8020B023BD060A16305E04B1C10
:1037E800A3630B781373E38F013BE387E38F002B0D
:1037F800DED1A36AB3F5005FDAD123681A6842F410
:1038080080521A60D4E723689968CE07D3D5012A75
:10381800226C10D9D96822F8021B2264B4F8462019
:10382800023A92B2012AA4F84620C4D85A6842F44F
:1038380080525A60BFE7511C21641B7B1370B4F897
:103848004630013BA4F84630B5E7B4F84630002BC3
:10385800AED19AE7022120460A462B46FFF7EDFD36
:1038680028B194F85E3043F0020384F85E30E368D0
:10387800B3F5706F236802D1DB689BB215E01B7B40
:10388800216BDBB20229ADF8063010D120460A467A
:103898002B46FFF7D2FD28B194F85E3043F00203BF
:1038A80084F85E3023681B7BDBB2ADF80630204617
:1038B8002946FFF754FEE0B921688B68012213F00E
:1038C800100584F85D2094F85E300AD043F00203B6
:1038D80084F85E306FF010038B6084F85C0010464B
:1038E80008E0181C84F85C5018BF012002E0384634
:1038F80000E0032003B0BDE8F08F90F85D0070474A
:1039080008B580B1D0F8143213B10023C0F81432CE
:1039180009B1C0F81012012380F8FC31027000F0E0
:1039280087FC002008BD022008BD19B1C0F8141298
:10393800002070470220704708B500F0B7FC00204F
:1039480008BD08B5D0F814320BB9022008BD1B68B1
:1039580098470028F9D108BD08B5D0F814325B683B
:103968009847002008BD38B500F50275044628467A
:1039780000F0C9F80123C4F8F43194F80812B4F837
:103988000E32C4F8F83101F01F03012B0CD006D316
:10399800022B0ED12046294600F0F8F90EE0204609
:1039A800294600F0CFF809E02046294600F0D6F96C
:1039B80004E0204601F0800100F090FC002038BDB2
:1039C80038B5044609BBD0F8F431032B26D1D0F81A
:1039D8000C51D0F810319D420AD9ED1A9D4238BFDA
:1039E8002B461146C0F80C519AB200F06EFA15E059
:1039F800D0F814321B6923B190F8FC21032A00D1B6
:103A08009847204600F06AFA08E0D0F814329B691B
:103A180023B190F8FC21032A00D19847002038BD33
:103A280070B50446002935D1D0F8F431022B29D1DC
:103A3800C569036A9D4206D9EB1A1146C3619AB259
:103A480000F02AFA1EE08569B5FBF3F603FB16566B
:103A58005EB99D4209D3D0F8F8319D4205D232466D
:103A680000F01AFAC4F8F8610CE0D4F81432DB68F4
:103A78002BB194F8FC21032A01D12046984720460F
:103A880000F037FA94F80032012B0CD1002384F8A7
:103A9800003208E0D0F814325B6923B190F8FC21B9
:103AA800032A00D19847002070BD38B5002104468C
:103AB8000A464025402300F000FC2B46C4F810516C
:103AC80020468021002200F0F8FB012384F8FC3115
:103AD800D4F8183225622BB1D4F8143221795B68F6
:103AE80020469847002038BD01740020704708B56B
:103AF80090F8FC21032A04D1D0F81432DB6903B111
:103B08009847002008BD0B7803704B784370CA783B
:103B18008B7803EB022343804A790B7903EB02236A
:103B28008380CA798B7903EB0223C380704710B571
:103B38008021044600F0D2FB20460021BDE8104059
:103B480000F0CCBB73B54B7804460D46092B00F248
:103B5800FC80DFE813F0CE00E500FA00E100FA008F
:103B680077000A00FA00BD0093006B881A0A013A30
:103B7800062A00F2EA80DFE812F007000B001800BE
:103B8800E800E8003D004900D0F810321B682CE03E
:103B9800027CD0F814320AB99B6A00E0DB6A0DF1A6
:103BA80006009847022301463CE0DBB2052B00F2F1
:103BB800CC80DFE803F003070B0F1317D0F810329F
:103BC8005B6812E0D0F810329B680EE0D0F8103233
:103BD800DB680AE0D0F810321B6906E0D0F8103232
:103BE8005B6902E0D0F810329B69207C0DF1060178
:103BF800984709E0037C002B40F0A780D0F81432E6
:103C08000DF106005B6B984701460CE0037C002B26
:103C180040F09B80D0F814320DF106001B6B9847DA
:103C2800072301464B70BDF80630002B00F0918049
:103C3800EA88002A00F08D809A4228BF1A46ADF81B
:103C4800062054E0AB88002B7FD1EB88002B7CD179
:103C580090F8FC31AE78032B06F07F0675D080F81B
:103C6800FE61314600F05BFB204600F037F90EB1EB
:103C7800022300E0012384F8FC316AE0A978364E7B
:103C88000129317061D890F8FC31022B02D0032B46
:103C980008D05AE0002954D001210323416080F85C
:103CA800FC310FE031B9022380F8FC314160FFF7A5
:103CB80053FE46E04168012943D0C9B2FFF74CFEE4
:103CC800317861602046FFF73CFE022839D13CE09C
:103CD800EA88012A39D190F8FC31022B03D0032B52
:103CE80033D1011D15E00146002341F8083F204665
:103CF8000FE090F8FC31023B012B26D80123C3606A
:103D0800D0F804320BB10323C360204604F10C0140
:103D1800022200F0B3F81CE06B88012B19D108E0EF
:103D280090F8FC31023B012B0FD86B88012B10D186
:103D38000023C4F80432D4F8143220469B6829467C
:103D48009847204600F0CAF803E020462946FFF7C6
:103D5800EEFE002002B070BDA00B002038B590F830
:103D6800FC31032B04460D460CD10B79012B09D8E5
:103D7800D0F814329B689847EB882BB9204600F09E
:103D8800ADF801E0FFF7D3FE002038BD70B54E78DE
:103D98008A88012E04460D46D3B210D027D3032EAD
:103DA8004CD190F8FC21022A28D0032A44D14A8811
:103DB8009AB95E0611D0194600F090FA0DE090F815
:103DC800FC21022A1AD0032A36D14A88002A35D182
:103DD800590608D0194600F088FAD4F8143220465B
:103DE8009B6829469847204600F078F826E090F826
:103DF800FC51022D02D0032D06D01DE05A061DD01D
:103E0800194600F06BFA19E003F07F0512F0800FF5
:103E180000EB0515194614BF143505F5827500F039
:103E28006BFA10B101232B6000E028602046294678
:103E3800022200F023F801E0FFF779FE002070BDB0
:103E480030B5D0B10023DCB20133C51815F8015CD8
:103E5800002DF8D1631C5B0013800B7003234B709B
:103E68000138022310F8012F3AB15C1CE4B2CA549D
:103E780002330022DBB20A55F4E730BD38B51346E9
:103E88000D460222C0F8F4218361C36100212A464D
:103E980000F04CFA002038BD10B50C46134600213E
:103EA800224600F043FA002010BD38B513460D46EF
:103EB8000322C0F8F421C0F80831C0F80C31002101
:103EC8002A4600F03AFA002038BD10B50C461346D1
:103ED8000021224600F031FA002010BD08B500216B
:103EE8000423C0F8F4310A460B4600F01FFA0020FC
:103EF80008BD08B500210523C0F8F4310A460B4671
:103F080000F01BFA002008BDD0F818321BB10020C1
:103F1800C3F81402704702207047D0F81C3210B55D
:103F2800D0F818425BB194F80002FF2807D09B68CC
:103F380094F8012221469847FF2384F80032002094
:103F480010BD000043230380004870472400002070
:103F58004323038000487047F00000204323038078
:103F680000487047AC0000200A23038000487047CF
:103F7800A000002038B50546D0F8184200F0E4F952
:103F8800D5F81832C4F80C024BB1D5F81C32D4F865
:103F98000402DB6804F503719847002038BD02204D
:103FA80038BDF8B50C460978D0F8185201F060030E
:103FB800202B064620D1E2886378BAB109060BD5D2
:103FC800D0F81C1218468F682946B847304629464B
:103FD800E288FFF753FF0FE085F80032E38885F8A1
:103FE80001322946E288FFF760FF05E0D0F81C128D
:103FF80018468C681146A0470020F8BD10B58121ED
:10400800044600F064F90121204600F060F92046DA
:10401800822100F05CF9D4F8183253B1D4F81C327C
:104028005B689847D4F8180200F098F90023C4F8A0
:104038001832002010BDF8B5037C04468121022205
:104048004BB94FF4007300F038F9204601210222E1
:104058004FF4007306E0402300F02FF920460121B9
:104068000222402300F029F9822103220823204656
:1040780000F023F94FF4077000F06CF90546C4F816
:104088001802C8B1D4F81C321B689847277CD5F8A9
:1040980004220026C5F814622046C5F818620121DA
:1040A8002FB94FF4007300F048F93846F8BD4023A3
:1040B80000F043F93046F8BD0120F8BD19B1C0F849
:1040C8001C120020704702207047D0F818320020D8
:1040D800C3F80812C3F810227047D0F8183200202D
:1040E800C3F80412704738B5D0F8184274B1D4F840
:1040F80014526DB9B4F81032D4F80822812100F0B6
:1041080015F90123C4F81432284638BD022038BDF9
:10411800012038BDD0F8183210B563B1047CD3F84B
:104128000422012114B94FF4007300E0402300F089
:1041380004F9002010BD022010BD00002DE9F04157
:10414800244C636943F400336361636986B043F4C4
:10415800802363614FF4C056112300254FF00308F4
:104168000E2701A94FF09040029301960395CDF8D0
:1041780010800597FDF7CEFE31462A464FF0904055
:10418800FDF786FF0120FDF751FE314601224FF071
:104198009040FDF77DFF022301A94FF09040029364
:1041A80001960395CDF810800597FDF7B3FEE369F6
:1041B80043F40003E361A36943F00103A36105210C
:1041C8002A461420FDF752FE1420FDF781FE06B0A2
:1041D800BDE8F08100100240014601F5A271D0F857
:1041E8007401FFF7C0BB1C2303FB0103D0F8740163
:1041F800D3F8C420FFF7E4BB1C2303FB0103D0F86A
:1042080074019A6BFFF70CBCD0F87401FFF76FBC10
:1042180010B504460121D0F87401FFF765FCD4F805
:104228007401BDE81040FFF740BC704770470000BC
:1042380038B51C4A05461C480823002480E80C00B1
:10424800C5F820020222C46002618260C0F874517D
:10425800FDF723FF21462246D5F820024023FEF72A
:10426800FEFD802122460B46D5F82002FEF7F7FD19
:104278002246D5F820028121C023FEF7F0FD224610
:10428800D5F8200201214FF48873FEF7E8FDD5F830
:104298002002822122464FF48073FEF7E0FD20467B
:1042A80038BD00BF005C00407011002008B5D0F890
:1042B8002002FDF738FF002008BD10B51446D0F8DD
:1042C80020021A462346FDF74AFF002010BD08B514
:1042D800D0F82002FEF7E6F8002008BD08B5D0F8AF
:1042E8002002FEF707FD002008BD08B5D0F820021F
:1042F800FEF751FD002008BD11F0800FD0F82032E4
:104308004FF01C0206D001F07F0102FB013393F845
:104318002A00704702FB013191F8B600704708B5D2
:10432800D0F82002FDF705FF002008BD08B5D0F839
:104338002002FEF702FA002008BD08B5D0F82002D6
:10434800FEF78BF9002008BD08B5D0F82002FEF76B
:10435800ECF908BD00487047A40B00207047000026
:1043680012230B80004870471572010804230B8044
:1043780000487047C471010810B501310023934209
:104388000DD0040F092C94BF3034373401F8014C98
:1043980001330024000101F8024BDBB2EFE710BD46
:1043A8001A2310B50B80094B93E8140008331B68D7
:1043B800D01808D006490822FFF7DEFF2046054935
:1043C8000422FFF7D9FF044810BD00BFACF7FF1F58
:1043D80052010020620100205001002010B5044C59
:1043E80004480A462146FFF72BFD204610BD00BFB2
:1043F800E8120020C871010810B5044C04480A46A8
:104408002146FFF71DFD204610BD00BFE812002021
:10441800E971010810B5044C04480A462146FFF723
:104428000FFD204610BD00BFE8120020FC710108F6
:1044380010B5044C04480A462146FFF701FD204602
:1044480010BD00BFE8120020077201080020704765
:1044580008B50B460246114600201A68FCF704FC12
:104468000248FFF757FE002008BD00BF480F002094
:1044780008B503490348FFF730FE002008BD00BF18
:1044880058140020480F0020202812D0212822D1BB
:10449800124B1A680A701A68120A4A705A888A7087
:1044A800DA78CA701A790A715A794A719B798B71CC
:1044B80011E08A784878094B120442EA0022087809
:1044C8000243C87842EA00621A600A791A714A7986
:1044D8005A718A799A710020704700BF6C010020D8
:1044E80010B51C4C86B02046FFF707FA00282ED1DD
:1044F800194BA06023601823E3610723E3624FF49C
:10450800E063E3604FF40073A3614FF48273636068
:10451800124B60612061A062206260629A6942F475
:1045280080529A615A6942F400325A61E023019339
:10453800022302930323039004934FF09040052332
:1045480001A90593FDF7E6FC2046FFF72AF806B017
:1045580010BD00BFD40D0020003001400010024003
:104568007FB500238DF817300B4B8DF80F001B68B3
:104578000A4800930DF10F010DF117020123FFF70F
:104588007AF820B10548FFF75FF8FFF7A9FF9DF813
:10459800170007B05DF804FB84010020D40D00204B
:1045A80030B5164C87B02046FEF744FF18BB144BB5
:1045B800144D23603223A360012320616061E06110
:1045C8002062E3606B69104843F480236B61C02369
:1045D80001930223029303930323049304230DEB13
:1045E80003010593FDF796FCEB6943F40013EB61B7
:1045F8002046FEF7BDFD07B030BD00BF340E0020D9
:1046080000540040001002400004004870B5044601
:1046180086B068B101280BD0022809D0032807D03A
:10462800042805D0052803D0062801D0072804D17E
:104638000D4B5A6942F400125A610C4B0C4E33F878
:10464800145056F82400019501230293039301A9FD
:1046580003230493FDF75EFC56F824002946002244
:10466800FDF716FD06B070BD001002402872010863
:1046780090010020044A034652F82000034A32F809
:1046880013100122FDF704BD9001002028720108D3
:10469800044A034652F82000034A32F81310002255
:1046A800FDF7F6BC900100202872010810B5194BDF
:1046B80086B018B95A6942F400325A619A6942F0D0
:1046C80001029A6169B90123019302230393032329
:1046D8000493114B029153F8200001A9FDF71AFC2D
:1046E80016E0012914D1032304930C4B0191029382
:1046F800094B002453F82000039401A9FDF70AFC94
:1047080006200F212246FDF7B1FB0620FDF7E0FB4E
:1047180006B010BD001002408801002000001110F2
:1047280008B5034B012153F82000FDF7ABFC08BD89
:10473800880100202DE9F043164C174D636987B0B6
:1047480043F40013636100264FF008094FF0010895
:104758000327284601A9CDF80490CDF808800396D0
:104768000497FDF7D7FB424628464946FDF790FCDB
:10477800636943F4001363612846062301A9019382
:10478800029604970396FDF7C5FBFFF7A9FE07B04D
:10479800BDE8F0830010024000100048012A70B5FF
:1047A8000D46064688BF41F040050C4814460821CE
:1047B8000022FDF76DFC2846FFF7D2FE34B116F84B
:1047C800010B013CFFF7CCFEA4B2F7E70348082130
:1047D8000122BDE87040FDF75BBC00BF0010004837
:1047E800012A70B58CBF41F0C00641F0800605462D
:1047F80014460C4808210022FDF74AFC3046FFF712
:10480800AFFE3CB10020FFF7ABFE013C05F8010B01
:10481800A4B2F6E7034808210122BDE87040FDF77D
:1048280037BC00BF00100048164B5A6970B542F4F7
:1048380000125A615A69144D42F4001286B05A6146
:10484800042300240DEB0301032628460193029458
:1048580003940496FDF75EFB224621460820FDF7E7
:1048680005FB0820FDF734FB3023284601A90193F6
:10487800029404960394FDF74DFBFFF791FE06B0F2
:1048880070BD00BF001002400010004810B50E4B6C
:104898000E485A6986B042F400125A6130230193D7
:1048A8000B4B0024029301A9032304930394FDF7FF
:1048B80031FB214622460A20FDF7D8FA0A20FDF7E7
:1048C80007FB06B010BD00BF0010024000100048F2
:1048D8000000111070B586B006AB064603F8012D2E
:1048E800094A0093012301931468084802940D466D
:1048F8002A463146FEF79CFC20B10448FEF781FCAD
:10490800FFF74EFE06B070BD8C010020340E00206B
:1049180030B587B006AB0A46002103F8011D0A49E5
:104928000093012301930C68054602940748294621
:10493800FEF7FCFC20B10548FEF763FCFFF730FEEC
:104948009DF8170007B030BD8C010020340E002000
:1049580038B5094C6368984733280BD1074D23684D
:104968002C6040F6470098472B6890201B6A9847B0
:10497800002038BD012038BDB00100206C0E002099
:1049880008B5034B1B689B6A03B1984708BD00BF75
:104998006C0E002038B50E4C63689847D42825461D
:1049A8000FD10C4C2B68256041F23F0098472368D3
:1049B80000201B6A9847236810205B6A98470020EC
:1049C80038BD63689847D528EBD0012038BD00BFB3
:1049D800DC010020700E002008B5034B1B689B6AA1
:1049E80003B1984708BD00BF700E002010B50446FB
:1049F800FFF71AFFE2B232202021FFF76BFF3220C7
:104A080023210022BDE81040FFF764BF08B5FFF777
:104A18000BFF32200F21BDE80840FFF779BF08B52A
:104A280024213220FFF774FF60F07F022421322016
:104A3800D2B2BDE80840FFF74DBF10B521210446AA
:104A48003220FFF765FF00F00C02224332202121BB
:104A5800BDE81040FFF73EBF10B5212104463220C3
:104A6800FFF756FF00F0F702224332202121BDE86C
:104A78001040FFF72FBFF0B5232185B00446322040
:104A8800FFF746FF242105463220FFF741FF282182
:104A98003220FFF73DFF29218DF808003220FFF76B
:104AA80037FF2A218DF809003220FFF731FF2B212B
:104AB8008DF80A003220FFF72BFF2C218DF80B0010
:104AC8003220FFF725FF2D218DF80C003220FFF74B
:104AD8001FFF15F0400F9DF909109DF908609DF919
:104AE8000B309DF90A209DF90C7040B219D189B29A
:104AF8009BB280B206EB012602EB032207EB0027EC
:104B0800ADF80060ADF80220ADF8047005F0300390
:104B1800202B16D0302B16D0102B0CBF02230123CC
:104B280012E0B6B292B2BFB201EB062103EB022348
:104B380000EB0720ADF80010ADF80230ADF8040026
:104B4800E4E7042300E00C23BDF800205A43228048
:104B5800BDF802205A436280BDF804205343A38065
:104B680005B0F0BD10B5212104463220FFF7D0FE74
:104B780000F0FB02224332202121BDE81040FFF75C
:104B8800A9BE10B5222104463220FFF7C1FE40EA33
:104B9800040222213220D2B2BDE81040FFF79ABEAB
:104BA80010B5382104463220FFF7B2FE40EA04026D
:104BB80038213220D2B2FFF78DFE32203A210A2264
:104BC800FFF788FE32203B210522FFF783FE3220C3
:104BD8003C210522FFF77EFE32203D210246BDE83A
:104BE8001040FFF777BE08B5FFF750FE8020FFF7AB
:104BF800C8FF0420FFF7B6FF1020BDE80840FFF704
:104C0800CFBF37B502AC002305468DF80730FFF754
:104C180091FD04F8015D202120460122FFF7BEFD29
:104C28002D0A2046232101228DF80750FFF7B6FDF3
:104C380003B030BD07B5FFF77DFD0DF107000F216B
:104C48000122FFF7CDFD9DF8070003B05DF804FBD6
:104C580007B524210DF107000122FFF7C1FD9DF8DA
:104C680007300DF1070063F07F03242101228DF83E
:104C78000730FFF793FD03B05DF804FB13B500237D
:104C8800044630210DF1060001228DF806308DF81A
:104C98000730FFF7A5FD0DF1070022210122FFF7DC
:104CA8009FFD9DF8063023F07F038DF806309DF8B0
:104CB800073023F020031C430DF1060030210122A8
:104CC8008DF80740FFF76AFD0DF107002221012248
:104CD800FFF764FD02B010BD13B50122044622217E
:104CE8000DF10700FFF77CFD24B99DF8073063F04C
:104CF8007F0307E0012C07D19DF8073023F0080354
:104D080043F008038DF807300DF107002221012236
:104D1800FFF744FD02B010BD13B50122044622215D
:104D28000DF10700FFF75CFD24B99DF8073003F08B
:104D38007F0305E0012C05D19DF8073023F0080317
:104D48008DF807300DF1070022210122FFF726FD1B
:104D580002B010BD13B50122044621210DF1070050
:104D6800FFF73EFD9DF8073023F03F031C430DF18C
:104D78000700212101228DF80740FFF70FFD02B03F
:104D880010BD13B50122044624210DF10700FFF7D9
:104D980027FD9DF8073023F010031C430DF1070091
:104DA800242101228DF80740FFF7F8FC02B010BD5E
:104DB8002DE9F04186B0804606A8002300F8113D91
:104DC800232101220293ADF80C300493ADF814307E
:104DD800FFF706FD2821062202A8FFF701FD9DF82E
:104DE80007309DF809609DF808709DF80B409DF804
:104DF8000A509DF80D209DF80C1013F0400F1AD1A1
:104E080007EB062605EB0424ADF81060ADF8124058
:104E180001EB022203F03003102BADF8142015D05B
:104E2800202B16D0DFED157A9FED157A002B08BFE1
:104E3800F0EE477A0FE006EB072604EB0524ADF801
:104E48001060ADF8124002EB0122E3E7DFED0D7AC6
:104E580001E0DFED0D7A4046002304AA9A5E07EED2
:104E6800102AB8EEC77A023327EE277A062BA0EC71
:104E7800017AF2D106B0BDE8F08100BF0000000061
:104E880000000C4100008C4100008C42DFF834D057
:104E9800002103E00C4B5B58435004310B480C4B8A
:104EA80042189A42F6D30B4A02E0002342F8043B28
:104EB800094B9A42F9D3FCF75FFA00F037F8FBF791
:104EC8000FFBFEE7FF7F002054730108000000205D
:104ED8004C0A00204C0A0020941C0020FEE7000029
:104EE800014600200246034600F0FEBA40F238634D
:104EF800C2F200031868704738B547F2543447F2D5
:104F08005035C0F60105C0F60104641BA41018BF93
:104F180005EB840505D0013C55F8043D9847002C65
:104F2800F9D1BDE8384001F099BE00BF70B547F22D
:104F3800483647F24835C0F60105C0F60106761B2B
:104F4800B6101CBF043D002405D0013455F8043FB9
:104F58009847A642F9D147F2503647F24835C0F68D
:104F68000105C0F60106761B01F072FEB6101CBFE3
:104F7800043D002406D0013455F8043F9847A64262
:104F8800F9D170BD70BD00BFF0B4840743D0541E82
:104F9800002A3ED0CDB2034603E0621E002C38D072
:104FA800144603F8015B9A07F7D1032C2AD9CDB22E
:104FB80045EA05250F2C45EA054515D9A4F1100742
:104FC8003F0903F1100606EB07161A4615605560EF
:104FD8009560D5601032B242F8D104F00F04013761
:104FE800032C03EB07130DD91E462246043A032A65
:104FF80046F8045BFAD8221F22F003020432134455
:1050080004F003042CB1C9B21C4403F8011BA342E9
:10501800FBD1F0BC704714460346C6E740F238633C
:10502800C2F2000301461868826801F041BA00BF65
:10503800F0B5044689B008460D4600F03FF9A3686C
:1050480005909989049547F24432C0F60102069208
:105058008A045EBF5A6E41F4005122F4005200F1F6
:1050680001004FF0010758BF5A660390079704AE36
:1050780058BF998102252046194601AA0196029532
:1050880000F0FEFC00280CBF0A204FF0FF3009B0EA
:10509800F0BD00BF40F23863C2F200030146186851
:1050A800FFF7C6BF2DE9F84340F23865C2F20005A4
:1050B80004462E6889461746984616B1B36B002BEE
:1050C80058D04FEAD875022F88BF45F00105002D4A
:1050D80033D13046214600F017FBA38965601A06D4
:1050E800A5612ED44FF67C751D40022FA58133D0C3
:1050F800B9F1000F42D0012F02BF45F00105C8F1F8
:105108000003A581ADB208BFA36105F0080045F210
:105118003D73C0F6000380B2F363C4F80090C4F88E
:105128001090C4F8148050B115F0030F0CBF43461B
:105138000023A3600020BDE8F8834FF0FF30BDE8EE
:10514800F8833046216900F0CDFBA3894FF67C75C2
:105158001D40022FA581CBD1002004F1430345F067
:10516800020500210122A581A160236023616261FB
:10517800BDE8F883304600F0E3FAA2E7B8F1000F83
:1051880008BF4FF48068404600F02AFE814628B1E7
:10519800A58945F08005ADB2A581ACE74FF48060E4
:1051A80000F01EFE814618B9A5894FF0FF30D4E7FC
:1051B8004FF48068ECE700BF40F20823C2F2000316
:1051C80030B405461C6802E0D01A16D1ABB115F808
:1051D800013BE0181A46407800F00300012808BF98
:1051E80003F1200211F8013BE018407800F00300B9
:1051F8000128E9D12033D01AE9D030BC704700BF6C
:1052080080EA0102844612F0030F4FD111F0030F18
:1052180032D14DF8044D11F0040F51F8043B0BD076
:10522800A3F101329A4312F0803F04BF4CF8043BCB
:1052380051F8043B16D100BF51F8044BA3F10132D9
:105248009A4312F0803FA4F101320BD14CF8043B91
:10525800A24312F0803F04BF51F8043B4CF8044BC2
:10526800EAD023460CF8013B13F0FF0F4FEA332333
:10527800F8D15DF8044B704711F0010F06D011F812
:10528800012B0CF8012B002A08BF704711F0020F00
:10529800BFD031F8022B12F0FF0F16BF2CF8022BEB
:1052A8008CF8002012F47F4FB3D1704711F8012B0E
:1052B8000CF8012B002AF9D1704700BF20F0030138
:1052C80010F00300C0F1000051F8043B00F1040C99
:1052D8004FEACC0C6FF000021CBF22FA0CF2134309
:1052E8004FF0010C4CEA0C2C4CEA0C4CA3EB0C02D2
:1052F80022EA030212EACC1204BF51F8043B04303C
:10530800F4D013F0FF0F1FBF013013F47F4F0130AB
:1053180013F47F0F18BF0130704700BF40F23862A6
:10532800C2F20002012312685C3200F001B800BF2B
:10533800F0B420B307460D4617F8016B01E0A6420A
:1053480016D015F8014B002CF9D1EEB13E460C46AB
:1053580016F8015B00E073B114F8013BAB42FAD1D7
:105368005DB100233B70166006463046F0BC7047BE
:1053780063B13846DEE73746E8E72E46F3E71068BC
:105388000028D7D10646F0E71660EEE71760064614
:105398000370EAE72DE9F00F40F2082482B0C2F268
:1053A80000040190D4F800C00E4600E026463446BA
:1053B80014F8015B0CEB0500407800F0080000F0E1
:1053C800FF070028F2D12D2D6AD02B2D08BF757844
:1053D800BA4608BFB41C33F0100016D1D3F101004F
:1053E80038BF0020302D09D078B149F699180A2322
:1053F800C1F699189B464FF005090FE0267806F08C
:10540800DF06582E51D0002858D14FF0FF38B8FB8E
:10541800F3F803FB08F96FEA09099B4600273846A9
:105428000CE04D45D4BF00260126404518BF002694
:10543800EEB90BFB0050012714F8015B0CEB0506D5
:10544800767816F0040F18BF303D07D116F0030622
:1054580010D0012E14BF57263726AD1BAB4209DDED
:10546800404594BF0026012656EAD777D9D04FF099
:10547800FF37E1E77B1C09D0BAF1000F0ED10AB162
:1054880057B9116002B0BDE8F00F704701992223A7
:105498000B603846002AF5D0611EF2E74042EEE77D
:1054A800B41C75784FF0010A95E7102365789B4680
:1054B8004FF00F0902346FF07048AFE708239B469E
:1054C8004FF007096FF06048A8E700BF30B440F21A
:1054D8003864C2F200040D46134601462A46206885
:1054E80030BCFFF757BF00BFF0B547F24034C0F6F5
:1054F800010485B02668D6F848410746002C44D0F8
:1055080065681F2D21DD45F6E954C0F600041CB975
:105518004FF0FF3005B0F0BD4FF4C8700391029210
:10552800019300F05DFC0399029A019B0446002850
:10553800EED0D6F848510020256060600546C6F8D0
:105548004841C4F88801C4F88C013FB9AB1C00205D
:105558000135656044F8231005B0F0BD04EB850003
:105568004FF0010CC0F88820D4F888610CFA05F2D5
:105578001643022FC4F88861C0F8083102BFD4F876
:105588008C311A43C4F88C21E0E706F5A674C6F8F6
:105598004841B5E740F20003C0F200032BB144F6DE
:1055A8000170C0F60000FFF79BBC70478B899AB268
:1055B8002DE9F0410D46110780463CD46A6843F452
:1055C8000063002AAB815ADDAC6A002C4CD09BB238
:1055D80003F480560022B6B2D8F80070C8F800204C
:1055E800002E50D02A6D5E0705D569682B6B521ABC
:1055F8000BB1EB6BD21A4046E9690023A047441C63
:105608004CD0AB892A6923F400639BB200212A603D
:10561800DA04AB8169604ED4296BC8F8007019B3FD
:1056280005F14003994202D0404600F05BF90020A2
:105638002863BDE8F0812E69B6B191072C6808BFD0
:105648006B692E6018BF0023A41BAB600AE03246CA
:1056580023466F6AE9694046B8470028C0EB04044E
:10566800064404DD002CF2DC0020BDE8F081AB89A3
:1056780043F04003AB814FF0FF30BDE8F081EA6BA7
:10568800002AA1DCF0E7324601234046E969A04739
:10569800431C02461ED0AB89AC6AA4E7D8F8003098
:1056A8005BB9A9896B6021F400639BB22A69AB815D
:1056B800DB042A60B0D52865AEE71D2B01D0162B78
:1056C8001BD1A9892B6921F400610022A9812B60D3
:1056D8006A60A1E7D8F80030002BDCD01D2B18BF7A
:1056E800162B15BFAB89C8F8007043F0400330464D
:1056F8001CBFAB811046BDE8F081AB8943F0400385
:10570800AB81BDE8F08100BF10B5044682B008B196
:10571800836B53B1B1F90C0008B902B010BD204633
:1057280002B0BDE81040FFF741BF019100F008F852
:105738000199EFE746F66531C0F6000100F02ABB93
:105748002DE9F04F846B83B00746002C70D1456873
:10575800C0F8E04245F23D73C0F60003032007F5A8
:105768003B710422FB63C7F8E402C7F8E81205F1AD
:105778005C00AA812C606C60AC606C66EC812C616A
:105788006C61AC6121460822FFF7FEFB46F6F10B7F
:10579800BE68ED6146F6151A46F64D1946F66D18BF
:1057A8000123C0F6000BC0F6000AC0F60009C0F6D7
:1057B80000080922C5F820B0C5F824A0C5F828902B
:1057C800C5F82C802146F381B28134607460B460DE
:1057D800746634617461B461082206F15C00019357
:1057E800FFF7D2FBFD68C6F820B012200222C6F8E7
:1057F80024A0C6F82890C6F82C80F6612146A88116
:10580800EA812C606C60AC606C662C616C61AC6188
:1058180005F15C000822FFF7B7FB019BC5F820B033
:10582800C5F824A0C5F82890C5F82C80ED61BB63A5
:1058380003B0BDE8F08F00BF704700BF704700BFDE
:10584800F8B540F23C64C2F200040F46054600F089
:105858002BFEA3685E6826F00306F71B07F6EF77B2
:105868003F0B013F3F03B7F5805F07DB2846002168
:10587800FBF75EF8A3683344984204D0284600F04A
:1058880015FE0020F8BD28467942FBF751F8013093
:1058980010D040F68063C2F20003A1681A68F61BB4
:1058A80046F001062846D71B4E601F6000F0FEFD3B
:1058B8000120F8BD28460021FBF73AF8A368C21A70
:1058C8000F2ADBDD40F64824C2F2000440F680616E
:1058D8002468C2F2000142F00102001B5A6008600D
:1058E800CCE700BF2DE9F8430E468146002960D079
:1058F80000F0DAFD56F8041CA6F1080421F00103B3
:10590800E21840F23C655768C2F2000527F0030030
:10591800AF68974263D011F0010C506018BF0021A6
:1059280011D156F8081C641A05F10808A6684645FE
:1059380018BFD4F80C800B441DBFC6F80C80614614
:10594800C8F80860012116187668F60708D40344D9
:10595800906811B9494EB04260D0D268C260906078
:1059680043F001026260E350F1B9B3F5007F22D33E
:105978005A0A042A5BD898093830410005EB81059A
:1059880040F23C61AA68AA42C2F200015BD05168A9
:1059980021F003018B4202D292689542F7D1D36875
:1059A800E360A2609C60D4604846BDE8F84300F01C
:1059B8007DBDBDE8F883DB0805EBC3026868916824
:1059C800E26001269B1006FA03F31843A1606860A1
:1059D80094604846CC60BDE8F84300F067BDCF0747
:1059E800184407D456F8083CE41A1844A268E36837
:1059F800D3609A6040F64422C2F2000240F00101EE
:105A0800136861609842AC60CED340F67C63C2F202
:105A1800000348461968FFF713FFC5E743F0010282
:105A28006C612C61E060A0606260E350BCE7142AFE
:105A38009CBF02F15B004100A0D9542A0CD8180B76
:105A48006E3041009AE74B688010012505FA00F096
:105A580003434B601346A3E7B2F5AA7F03D8D80BDC
:105A6800773041008AE740F254518A429DBF980C32
:105A78007C304100FC2188BF7E207FE7440600205F
:105A88002DE9F04F936883B0164681460C463BB328
:105A98008B89190728D5226932B303F0020292B222
:105AA8003568002A2ED04FF0000A4FF47C4BD046C0
:105AB800C7F6FF7BD84534BF43465B465246484647
:105AC800B8F1000F4FD0E169676AB847002856DD82
